:100000000C9434000C9451000C941D010C9451007C
:100010000C9451000C9451000C9451000C9451001C
:100020000C9451000C9451000C9451000C9451000C
:100030000C9451000C9451000C9493010C945100B9
:100040000C9451000C9451000C9451000C945100EC
:100050000C9451000C9451000C9451000C945100DC
:100060000C9451000C94510011241FBECFEFD8E026
:10007000DEBFCDBF11E0A0E0B1E0E0EFF4E002C0F0
:1000800005900D92A432B107D9F721E0A4E2B1E0C6
:1000900001C01D92A832B207E1F70E94AB010C9497
:1000A00076020C9400009091C00095FFFCCF8093E5
:1000B000C60008951F93CF93DF9360E177E20E941B
:1000C0004E02EC0164E670E00E944E02162FC83E1C
:1000D00083E0D80740F0862F6AE00E944202805DEC
:1000E0000E94530003C0C436D10540F0812F6AE05E
:1000F0000E94420280E3890F0E945300CE0164E611
:1001000070E00E944E02182F2A9730F06AE00E9499
:100110004202805D0E945300812F6AE00E944202E9
:1001200080E3890FDF91CF911F910C9453008DE0F4
:100130000E9453008AE00C945300F89420E030E0D1
:1001400080E041E050E0559A90E19A95F1F755989A
:10015000E5E3EA95F1F700004D9B07C0BA01022ED6
:1001600001C0660F0A94EAF7862BE7ECF0E03197BE
:10017000F1F700C000002F5F3F4F2830310519F71D
:1001800078940895F89420E030E090E0AC01022EDD
:1001900002C0559547950A94E2F7559A40FF0CC066
:1001A00045E34A95F1F700005598EBEDF0E0319703
:1001B000F1F700C000000BC0E3E0F1E03197F1F788
:1001C00000C000005598FAE1FA95F1F700C02F5FE2
:1001D0003F4F28303105D1F6789408955D98559AAF
:1001E0008FEC97E00197F1F700C000005598EFE31E
:1001F000F1E03197F1F700C0000089B1EFECF7E0D2
:100200003197F1F700C0000085FB882780F991E065
:10021000892781950895CF93DF93EC0189918823F5
:1002200049F00E9453008FE39CE90197F1F700C069
:100230000000F4CFDF91CF9108951F920F920FB677
:100240000F9211242F933F934F935F936F937F935C
:100250008F939F93AF93BF93CF93DF93EF93FF93CE
:10026000E8982D9A6091260170912701611571051A
:1002700071F0660F771F8CEF98E00E944E0270932A
:1002800025016093240110922701109226016091AC
:1002900024017091250180E090E00E94DC012FE6AE
:1002A00032E143E85AE30E94190287FD1CC081E154
:1002B00091E00E940B0180912401909125016AE058
:1002C00070E00E946202EC01CB010E945A008EE2B3
:1002D0000E945300CE010E945A008EE191E00E94DC
:1002E0000B010E9497002FEF81EE94E02150804097
:1002F0009040E1F700C000002D9882E08DBBE19AAC
:10030000FF91EF91DF91CF91BF91AF919F918F912D
:100310007F916F915F914F913F912F910F900FBE01
:100320000F901F9018951F920F920FB60F921124E5
:100330008F939F938091260190912701019690932E
:1003400027018093260116BC9F918F910F900FBEBD
:100350000F901F901895259A2D9A5098519A1092A7
:10036000C50089E18093C40088E18093C10086E0E4
:100370008093C20080E091E00E940B010E949700F0
:1003800053985B9A549A5C9888E08093690082E065
:100390008DBB14BC93E095BD80936E008DE787BD47
:1003A00078942FEF89E698E1215080409040E1F762
:1003B00000C000002D98FFCFE89409C097FB3EF4E1
:1003C00090958095709561957F4F8F4F9F4F9923A2
:1003D000A9F0F92F96E9BB279395F6958795779520
:1003E0006795B795F111F8CFFAF4BB0F11F460FFE0
:1003F0001BC06F5F7F4F8F4F9F4F16C0882311F038
:1004000096E911C0772321F09EE8872F762F05C04B
:10041000662371F096E8862F70E060E02AF09A95E6
:10042000660F771F881FDAF7880F9695879597F9DB
:1004300008950E941E0208F48FEF0895990F000896
:10044000550FAA0BE0E8FEEF16161706E807F907A6
:10045000C0F012161306E407F50798F0621B730B41
:10046000840B950B39F40A2661F0232B242B252BC2
:1004700021F408950A2609F4A140A6958FEF811D65
:10048000811D0895991B79E004C0991F961708F003
:10049000961B881F7A95C9F780950895AA1BBB1BE8
:1004A00051E107C0AA1FBB1FA617B70710F0A61B74
:1004B000B70B881F991F5A95A9F780959095BC0195
:1004C000CD01089597FB072E16F4009407D077FD11
:1004D00009D00E944E0207FC05D03EF4909581950C
:1004E0009F4F0895709561957F4F0895F894FFCFC1
:1004F0004475626F7320416E656D6F6D65746572D2
:100500000057696E642073706565643A2000206D41
:040510002F73000045
:00000001FF
